:100000000C942A000C9447000C9447000C94470071
:100010000C9447000C9447000C9447000C94470044
:100020000C9447000C9447000C9447000C94470034
:100030000C9447000C9447000C9447000C94470024
:100040000C9447000C9447000C9447000C94470014
:100050000C94470011241FBECFE5D8E0DEBFCDBF12
:1000600011E0A0E6B0E0E6E6F3E402C005900D92F0
:10007000AC39B107D9F711E0ACE9B1E001C01D928C
:10008000AD39B107E1F70E947E1F0C94B1210C94A9
:100090000000EF92FF920F931F937B018C0120E0F1
:1000A00030E040E05FE40E94AE1388238CF0C8018A
:1000B000B70120E030E040E05FE40E9426120E9499
:1000C0000E149B01AC01205030404040504806C007
:1000D000C801B7010E940E149B01AC01B901CA010D
:1000E0001F910F91FF90EF900895A2E7B0E0EBE72A
:1000F000F0E00C947A21982E892E712E88E0FE0172
:100100003196DF01682E1D926A94E9F729833A83BC
:100110004B835C836D837E839F829887FE01399633
:10012000DF011D928A95E9F7A986BA86CB86DC861F
:10013000ED86FE860F87188B8D819E81AF81B885F5
:10014000B7FD07C0E1961CAE1DAE1EAE1FAEE19717
:1001500064C0219581E0121608F080E0319591E0AD
:10016000131608F090E0B32FB81B81E03B1708F09E
:1001700080E0982B419531E0141608F030E0A42F70
:10018000A91B81E04A1708F080E0382B519591E0D7
:10019000151608F090E0F52FF31B81E05F1708F0CB
:1001A00080E0982B619531E0161608F030E0E62FDC
:1001B000E91B81E06E1708F080E0382B719541E073
:1001C000171608F040E0572F531B81E0751708F011
:1001D00080E0482B892D819591E0181608F090E079
:1001E000682E641A462D31E0861508F030E0932B16
:1001F000882D8195891B2983BA83AB83FC83ED838A
:100200005E834F8388872FEF3FEF4FEF5FEFE196DD
:100210002CAF3DAF4EAF5FAFE1978D859E85AF852B
:10022000B889B7FF6AC0E1964CAD5DAD6EAD7FADEC
:10023000E1974095509560957095E1964CAF5DAF14
:100240006EAF7FAFE197A19481E01A1408F080E0CF
:10025000B19491E01B1408F090E06B2D681B81E0D5
:10026000B61608F080E0982BC19421E01C1408F029
:1002700020E05C2D591B81E0C51608F080E0282B9A
:10028000D19491E01D1408F090E04D2D421B81E0C7
:10029000D41608F080E0982BE19421E01E1408F0B9
:1002A00020E03E2D391B81E0E31608F080E0282B8A
:1002B000F19491E01F1408F090E07F2D721B272F1E
:1002C00081E0F71608F080E0982B019511E01016F8
:1002D00008F010E0802F891B982F81E0091708F0A3
:1002E00080E0182B872D8195811BA9866A875B8703
:1002F0004C873D872E879F87888B99812A813B81F8
:100300004C815D816E817F81A885B9851A850B85B9
:10031000FC84ED84DE84CF84B88888E0E1E18E2E11
:10032000912C8C0E9D1EF401682E11926A94E9F7AF
:10033000998B2A8B3B8B4C8B5D8B6E8B7F8BA88F25
:100340009E01275E3F4FF90111928A95E9F7B98F17
:100350001A8F0B8FFC8EED8EDE8ECF8EB8A2298C7D
:100360003A8C4B8C5C8CED8CFE8C0F8D18A16988BF
:100370007A888B889C8821966CAE7DAE8EAE9FAEBF
:1003800021976D887E888F88988CE114F10401058F
:10039000110509F0D9C3621473048404950408F0AC
:1003A00057C100E0201600E0300601E0400600E002
:1003B000500688F41FEF211631044104510439F02E
:1003C00030F048E0E42EF12C012D112D18C0EE2460
:1003D000FF24870114C020E0221620E0320620E02E
:1003E000420621E0520630F038E1E32EF12C012DD7
:1003F000112D05C020E1E22EF12C012D112DD2018D
:10040000C1010E2C04C0B695A795979587950A94BF
:10041000D2F78D579F4FDC012C9180E290E0A0E055
:10042000B0E08E199F09A00BB10B7C018D01E21A7F
:10043000F10801091109E114F10401051105D1F1D7
:100440000E2C04C0220C331C441C551C0A94D2F7F9
:10045000A40193010E2C04C0220F331F441F551F0B
:100460000A94D2F780E290E08E199F0921966CAC35
:100470007DAC8EAC9FAC219704C096948794779402
:1004800067948A95D2F7622A732A842A952A21963C
:10049000ACACBDACCEACDFAC219704C0AA0CBB1C8D
:1004A000CC1CDD1CEA94D2F72196ACAEBDAECEAE2C
:1004B000DFAE21976201EE24FF242996CCAEDDAE9B
:1004C000EEAEFFAE299792018101207030702D961B
:1004D0000CAF1DAF2EAF3FAF2D97C401B301A701E5
:1004E00096010E9458217B018C01C401B301299619
:1004F0002CAD3DAD4EAD5FAD29970E945821C9018D
:10050000DA013C014D01C401B3012D962CAD3DAD86
:100510004EAD5FAD2D970E9439219B01AC01870143
:10052000FF24EE242196ACACBDACCEACDFAC219761
:10053000C601AA27BB2757016801A82AB92ACA2AD7
:10054000DB2AA216B306C406D506E0F408946108B7
:10055000710881089108A20CB31CC41CD51CA214FC
:10056000B304C404D50470F0A216B306C406D506BD
:1005700048F408946108710881089108A20CB31C22
:10058000C41CD51CA21AB30AC40AD50AC601B501F7
:1005900029962CAD3DAD4EAD5FAD29970E945821F7
:1005A0007B018C01C601B50129962CAD3DAD4EAD48
:1005B0005FAD29970E945821C901DA015C016D01E4
:1005C000C601B5012D962CAD3DAD4EAD5FAD2D975D
:1005D0000E9439219B01AC018701FF24EE24219662
:1005E0008CAD9DADAEADBFAD2197A070B070E82AC7
:1005F000F92A0A2B1B2BE216F30604071507C0F491
:100600000894A108B108C108D108E20CF31C041D2C
:10061000151DE214F3040405150550F0E216F30667
:100620000407150728F40894A108B108C108D108E7
:10063000D3019927882786017501E82AF92A0A2B10
:100640001B2B2596ECAEFDAE0EAF1FAF2597EBC46E
:10065000211431044104510471F461E070E080E040
:1006600090E020E030E040E050E00E945821C901D5
:10067000DA011C012D0100E0201600E0300601E047
:10068000400600E0500688F41FEF211631044104B3
:10069000510431F028F048E050E060E070E017C00D
:1006A00040E050E060E070E012C020E0221620E060
:1006B000320620E0420621E0520628F048E150E0F0
:1006C00060E070E004C040E150E060E070E0D20122
:1006D000C101042E04C0B695A795979587950A94F5
:1006E000D2F78D579F4FDC012C91E0E2EE2EF12CDA
:1006F000012D112DD801C701841B950BA60BB70B3B
:10070000821B9109A109B1090097A105B10561F406
:1007100064015301A218B308C408D50831E0632E60
:10072000712C812C912C24C1E3968FAFE397082E76
:1007300004C0220C331C441C551C0A94D2F7EE2D25
:10074000E81B640153010E2E04C0D694C794B794DD
:10075000A7940A94D2F7A4019301E3960FACE39710
:1007600004C0220F331F441F551F0A94D2F721964D
:100770006CAC7DAC8EAC9FAC21970E2E04C09694D1
:100780008794779467940A94D2F784017301E22ADC
:10079000F32A042B152BE9AEFAAE0BAF1CAF3201D6
:1007A00088249924920181012070307061960CAFE9
:1007B0001DAF2EAF3FAF6197C601B501A4019301F4
:1007C0000E9458217B018C01C601B501A40193014F
:1007D0000E945821C901DA0165968CAF9DAFAEAF7A
:1007E000BFAF6597BC01CD0161962CAD3DAD4EAD5F
:1007F0005FAD61970E9439219B01AC018701FF2405
:10080000EE24A9ACBAACCBACDCACC601AA27BB27A2
:100810005C016D01AE28BF28C02AD12AA216B306FA
:10082000C406D50660F565966CAD7DAD8EAD9FAD09
:100830006597615070408040904065966CAF7DAF89
:100840008EAF9FAF6597A20CB31CC41CD51CA2141D
:10085000B304C404D50498F0A216B306C406D506A2
:1008600070F4615070408040904065966CAF7DAFF1
:100870008EAF9FAF6597A20CB31CC41CD51CA21AE7
:10088000B30AC40AD50AC601B501A40193010E94A6
:1008900058217B018C01C601B501A40193010E947E
:1008A0005821C901DA013C014D01C401B30161962F
:1008B0002CAD3DAD4EAD5FAD61970E9439219B01DE
:1008C000AC018701FF24EE2489AD9AADABADBCAD80
:1008D000A070B07057016801A82AB92ACA2ADB2A79
:1008E000A216B306C406D506E0F4089461087108A0
:1008F00081089108A20CB31CC41CD51CA214B3041B
:10090000C404D50470F0A216B306C406D50648F494
:1009100008946108710881089108A20CB31CC41CDA
:10092000D51C21968CAD9DADAEADBFAD2197E396A4
:100930000FACE39704C0880F991FAA1FBB1F0A942E
:10094000D2F721968CAF9DAFAEAFBFAF2197A21A61
:10095000B30AC40AD50A6596ECACFDAC0EAD1FAD6A
:100960006597D70199278827682A792A8A2A9B2A96
:1009700082012227332769960CAF1DAF2EAF3FAF00
:100980006997A2019101407050706D962CAF3DAFF8
:100990004EAF5FAF6D97C601B50169962CAD3DAD09
:1009A0004EAD5FAD69970E9458217B018C01C60155
:1009B000B50169962CAD3DAD4EAD5FAD69970E9416
:1009C0005821C901DA01A1968CAF9DAFAEAFBFAF80
:1009D000A197BC01CD016D962CAD3DAD4EAD5FAD87
:1009E0006D970E9439219B01AC018701FF24EE2401
:1009F0002196ACACBDACCEACDFAC2197C601AA272A
:100A0000BB2757016801A82AB92ACA2ADB2AA216DD
:100A1000B306C406D50660F5A1966CAD7DAD8EAD6E
:100A20009FADA1976150704080409040A1966CAFFF
:100A30007DAF8EAF9FAFA197A20CB31CC41CD51C79
:100A4000A214B304C404D50498F0A216B306C406D5
:100A5000D50670F46150704080409040A1966CAF14
:100A60007DAF8EAF9FAFA197A20CB31CC41CD51C49
:100A7000A21AB30AC40AD50AC601B50169962CADFB
:100A80003DAD4EAD5FAD69970E9458217B018C0151
:100A9000C601B50169962CAD3DAD4EAD5FAD699710
:100AA0000E945821C901DA015C016D01C601B5013E
:100AB0006D962CAD3DAD4EAD5FAD6D970E94392169
:100AC0009B01AC018701FF24EE2421968CAD9DADE6
:100AD000AEADBFAD2197A070B070E82AF92A0A2BFD
:100AE0001B2BE216F30604071507C0F40894A108AF
:100AF000B108C108D108E20CF31C041D151DE21455
:100B0000F3040405150550F0E216F3060407150773
:100B100028F40894A108B108C108D108A196ECAC4A
:100B2000FDAC0EAD1FADA197D7019927882796017F
:100B30008501082B192B2A2B3B2B25960CAF1DAFBB
:100B40002EAF3FAF259772C26E147F0480069106C8
:100B500008F45FC220E0E21620E0F20621E002077E
:100B600020E0120788F43FEFE316F10401051105B8
:100B700031F028F048E050E060E070E017C040E05D
:100B800050E060E070E012C040E0E41640E0F4069F
:100B900040E0040741E0140728F048E150E060E03D
:100BA00070E004C040E150E060E070E0D801C701AF
:100BB000042E04C0B695A795979587950A94D2F709
:100BC0008D579F4FDC012C9130E2A32EB12CC12C0C
:100BD000D12CD601C501841B950BA60BB70B821B2C
:100BE0009109A109B1090097A105B10599F4E6148D
:100BF000F7040805190508F4FEC121966CAC7DAC1C
:100C00008EAC9FAC2197621473048404950408F0A1
:100C1000F2C1FFC1E2968FAFE297082E04C0EE0C3E
:100C2000FF1C001F111F0A94D2F76A2D681BD20106
:100C3000C101062E04C0B695A795979587950A948D
:100C4000D2F75C016D01AE28BF28C02AD12AADAA17
:100C5000BEAACFAAD8AE72016101E2960FACE297AC
:100C600004C0CC0CDD1CEE1CFF1C0A94D2F7C9AAF0
:100C7000DAAAEBAAFCAA64015301062E04C0D6949A
:100C8000C794B794A7940A94D2F7D401C301E2960B
:100C90000FACE29704C0880F991FAA1FBB1F0A94CC
:100CA000D2F72196ECACFDAC0EAD1FAD219704C080
:100CB00016950795F794E7946A95D2F7370148019E
:100CC000682A792A8A2A9B2A6DA67EA68FA698AAC8
:100CD000EDA8FEA80FA918AD380188249924980121
:100CE000870120703070A5960CAF1DAF2EAF3FAFBF
:100CF000A597C601B501A40193010E9458217B016B
:100D00008C01C601B501A40193010E945821C901BB
:100D1000DA011C012D01C201B101A5962CAD3DAD3A
:100D20004EAD5FADA5970E9439219B01AC018701B3
:100D3000FF24EE24ADA4BEA4CFA4D8A8C601AA2740
:100D4000BB2757016801A82AB92ACA2ADB2AA2169A
:100D5000B306C406D50600F50894210831084108F9
:100D60005108EDA8FEA80FA918ADAE0CBF1CC01EFF
:100D7000D11EAE14BF04C006D10670F0A216B30691
:100D8000C406D50648F408942108310841085108E2
:100D9000AE0CBF1CC01ED11EA21AB30AC40AD50ACB
:100DA000C601B501A40193010E9458217B018C0169
:100DB000C601B501A40193010E945821C901DA01BD
:100DC0003C014D01C401B301A5962CAD3DAD4EAD26
:100DD0005FADA5970E9439219B01AC018701FF24DB
:100DE000EE248DA59EA5AFA5B8A9A070B07057013F
:100DF0006801A82AB92ACA2ADB2AA216B306C406A1
:100E0000D50600F5089461087108810891086DA95C
:100E10007EA98FA998ADA60EB71EC81ED91EA6160C
:100E2000B706C806D90670F0A216B306C406D506E2
:100E300048F408946108710881089108A60EB71E4D
:100E4000C81ED91ED601C501821B930BA40BB50B7E
:100E500089A79AA7ABA7BCA7D101992788276401C6
:100E60005301A82AB92ACA2ADB2A2596ACAEBDAE00
:100E7000CEAEDFAE2597860175012FEF3FEF40E044
:100E800050E0E222F32204231523A60166277727E8
:100E9000AD964CAF5DAF6EAF7FAFAD97A9A8BAA8C6
:100EA000CBA8DCA86FEF7FEF80E090E0A622B7220E
:100EB000C822D92289A99AA9ABA9BCA91D01442499
:100EC0005524C801B701A60195010E943921A996B0
:100ED0006CAF7DAF8EAF9FAFA997C801B701A201DC
:100EE00091010E9439213B014C01AD966CAD7DAD65
:100EF0008EAD9FADAD97A60195010E9439217B0172
:100F00008C01AD966CAD7DAD8EAD9FADAD97A20160
:100F100091010E9439215B016C01A8019701260D06
:100F2000371D481D591DA9966CAC7DAC8EAC9FAC8D
:100F3000A997C401AA27BB27280F391F4A1F5B1F87
:100F40002E153F054007510748F4E12CF12C61E0D4
:100F5000062F112DAE0CBF1CC01ED11ECA01AA2720
:100F6000BB27BC01CD016A0D7B1D8C1D9D1D69A495
:100F70007AA48BA49CA4661677068806990650F17D
:100F8000661577058805990509F04DC0D90199279F
:100F90008827A9962CAD3DAD4EAD5FADA9974070A9
:100FA0005070820F931FA41FB51F21962CAD3DAD2D
:100FB0004EAD5FAD2197E2960FACE29704C0220FD1
:100FC000331F441F551F0A94D2F7281739074A07C1
:100FD0005B0748F525960CAD1DAD2EAD3FAD2597B1
:100FE000015010402040304025960CAF1DAF2EAF71
:100FF0003FAF259718C066247724430121E030E0F5
:1010000040E050E025962CAF3DAF4EAF5FAF259747
:101010000DC066247724430125961CAE1DAE1EAE7E
:101020001FAE259703C0662477244301FE01B196C5
:1010300088E0DF011D928A95E9F72596ACACBDAC3E
:10104000CEACDFAC2597A9A2BAA2CBA2DCA26DA23E
:101050007EA28FA298A622962FAD22973AA14BA1ED
:101060005CA1662D7EA1DFA098A5E196ECACFDAC5D
:101070000EAD1FADE197E114F1040105110509F46E
:1010800056C0219581E0121608F080E03195E1E02C
:10109000131608F0E0E0932E981A81E0391508F055
:1010A00080E0E82B4195F1E0141608F0F0E0A42E62
:1010B000AE1A81E04A1508F080E0F82B5195E1E086
:1010C000151608F0E0E0B52EBF1A81E05B1508F0B8
:1010D00080E0E82B6195F1E0161608F0F0E0A62F0D
:1010E000AE1B81E06A1708F080E0F82B7195E1E013
:1010F000171608F0E0E0C72ECF1A81E07C1508F043
:1011000080E0E82B8D2D8195F1E0181608F0F0E0D5
:10111000D82EDE1AE1E08D1508F0E0E0FE2B892FD5
:101120008195392DA5016A2F7C2D982F9F1B8D2D20
:10113000CE58DF4FE2E10C949621A7E7B0E0E3EA56
:10114000F8E00C947A21982E892E712E88E0FE0109
:101150003196DF01682E1D926A94E9F729833A835C
:101160004B835C836D837E839F829887FE013996D3
:10117000DF011D928A95E9F7A986BA86CB86DC86BF
:10118000ED86FE860F87188B8D819E81AF81B88595
:10119000B7FD07C0E1961CAE1DAE1EAE1FAEE197B7
:1011A00064C0219581E0121608F080E0319591E04D
:1011B000131608F090E0B32FB81B81E03B1708F03E
:1011C00080E0982B419531E0141608F030E0A42F10
:1011D000A91B81E04A1708F080E0382B519591E077
:1011E000151608F090E0F52FF31B81E05F1708F06B
:1011F00080E0982B619531E0161608F030E0E62F7C
:10120000E91B81E06E1708F080E0382B719541E012
:10121000171608F040E0572F531B81E0751708F0B0
:1012200080E0482B892D819591E0181608F090E018
:10123000682E641A462D31E0861508F030E0932BB5
:10124000882D8195891B2983BA83AB83FC83ED8329
:101250005E834F8388872FEF3FEF4FEF5FEFE1967D
:101260002CAF3DAF4EAF5FAFE1978D859E85AF85CB
:10127000B889B7FF5AC0A19481E01A1408F080E041
:10128000B19491E01B1408F090E06B2D681B81E095
:10129000B61608F080E0982BC19421E01C1408F0E9
:1012A00020E05C2D591B81E0C51608F080E0282B5A
:1012B000D19491E01D1408F090E04D2D421B81E087
:1012C000D41608F080E0982BE19421E01E1408F079
:1012D00020E03E2D391B81E0E31608F080E0282B4A
:1012E000F19491E01F1408F090E07F2D721B272FDE
:1012F00081E0F71608F080E0982B019511E01016B8
:1013000008F010E0802F891B982F81E0091708F062
:1013100080E0182B872D8195811BA9866A875B87C2
:101320004C873D872E879F87888B99812A813B81B7
:101330004C815D816E817F81A885B9851A850B8579
:10134000FC84ED84DE84CF84B88888E0E9E18E2EC9
:10135000912C8C0E9D1EF401682E11926A94E9F76F
:10136000998F2A8F3B8F4C8F5D8F6E8F7F8FA8A3B5
:101370009E012F5D3F4FF90111928A95E9F7B9A3BC
:101380001AA30BA3FCA2EDA2DEA2CFA2B8A629A0AD
:101390003AA04BA05CA0ADA0BEA0CFA0D8A4498D20
:1013A0005A8D6B8D7C8DE5964FAFE597E6965FAFD6
:1013B000E697E7966FAFE797E8967FAFE897E896EE
:1013C0006CAC7DAC8EAC9FACE8972D966CAE7DAED0
:1013D0008EAE9FAE2D978D8D9E8D2F8D38A13C01A9
:1013E000490161966CAE7DAE8EAE9FAE6197A11441
:1013F000B104C104D10409F028C362147304840445
:10140000950408F00EC100E0201600E0300601E06F
:10141000400600E0500688F41FEF21163104410415
:10142000510439F030F088E0E82EF12C012D112D17
:1014300018C0EE24FF24870114C020E0221620E00B
:10144000320620E0420621E0520630F0B8E1EB2EF1
:10145000F12C012D112D05C0A0E1EA2EF12C012D5A
:10146000112DD201C1010E2C04C0B695A7959795F8
:1014700087950A94D2F78D579F4FDC012C9180E21B
:1014800090E0A0E0B0E08E199F09A00BB10B5C01C9
:101490006D01A21AB108C108D1086596ACAEBDAE07
:1014A000CEAEDFAE6597A114B104C104D10409F436
:1014B00045C062966FAD6297062E04C0220C331CA5
:1014C000441C551C0A94D2F7A4019301062E04C0B3
:1014D000220F331F441F551F0A94D2F780E290E079
:1014E0008A199B09E896CCACDDACEEACFFACE89772
:1014F00004C0F694E794D794C7948A95D2F78701ED
:101500007601E22AF32A042B152B6196ECAEFDAE90
:101510000EAF1FAF6197E8960CAD1DAD2EAD3FAD80
:10152000E89704C0000F111F221F331F6A95D2F7DE
:101530002D960CAF1DAF2EAF3FAF2D9732018824F3
:101540009924A20191014070507069962CAF3DAF73
:101550004EAF5FAF699761966CAD7DAD8EAD9FADBF
:101560006197A40193010E9458217B018C0161962F
:101570006CAD7DAD8EAD9FAD6197A40193010E94CE
:101580005821CA01B90169962CAD3DAD4EAD5FAD94
:1015900069970E9439219B01AC018701FF24EE2449
:1015A0002D96ACACBDACCEACDFAC2D97C601AA2756
:1015B000BB2757016801A82AB92ACA2ADB2AA21622
:1015C000B306C406D50690F4A20CB31CC41CD51CEB
:1015D000A214B304C404D50448F0A216B306C4068A
:1015E000D50620F4A20CB31CC41CD51CA21AB30A45
:1015F000C40AD50AC601B501A40193010E9458216D
:101600007B018C01C601B501A40193010E94582100
:10161000CA01B90169962CAD3DAD4EAD5FAD69977C
:10162000C8C1211431044104510471F461E070E037
:1016300080E090E020E030E040E050E00E9458215F
:10164000C901DA011C012D0100E0201600E030067E
:1016500001E0400600E0500688F41FEF2116310437
:101660004104510439F030F068E0E62EF12C012DF0
:10167000112D18C0EE24FF24870114C020E022168B
:1016800020E0320620E0420621E0520630F058E128
:10169000E52EF12C012D112D05C040E1E42EF12C99
:1016A000012D112DD201C1010E2C04C0B695A795B4
:1016B000979587950A94D2F78D579F4FDC012C910F
:1016C00030E2A32EB12CC12CD12CD601C5018E192C
:1016D0009F09A00BB10B7C018D01E21AF1080109F1
:1016E00011096596ECAEFDAE0EAF1FAF6597E11424
:1016F000F1040105110539F464015301A218B3087E
:10170000C408D508ECC06296FFAC6297E496FFAEC1
:10171000E4970F2C04C0220C331C441C551C0A9463
:10172000D2F78A2D8F1964015301082E04C0D69474
:10173000C794B794A7940A94D2F7A401930104C064
:10174000220F331F441F551FFA94D2F7E8966CAC52
:101750007DAC8EAC9FACE89704C096948794779448
:1017600067948A95D2F784017301E22AF32A042B45
:10177000152B2996ECAEFDAE0EAF1FAF29973201A7
:101780008824992492018101207030706D960CAFED
:101790001DAF2EAF3FAF6D97C601B501A4019301F8
:1017A0000E9458217B018C01C601B501A40193015F
:1017B0000E945821CA01B9016D962CAD3DAD4EADC8
:1017C0005FAD6D970E9439219B01AC018701FF2419
:1017D000EE242996ACACBDACCEACDFAC2997C601EB
:1017E000AA27BB275C016D01AE28BF28C02AD12AD9
:1017F000A216B306C406D50690F4A20CB31CC41CF2
:10180000D51CA214B304C404D50448F0A216B30630
:10181000C406D50620F4A20CB31CC41CD51CA21A05
:10182000B30AC40AD50AC601B501A40193010E94F6
:1018300058217B018C01C601B501A40193010E94CE
:101840005821CA01B9016D962CAD3DAD4EAD5FADCD
:101850006D970E9439219B01AC018701FF24EE2482
:1018600029968CAD9DADAEADBFAD2997A070B0707F
:1018700057016801A82AB92ACA2ADB2AA216B30688
:10188000C406D50690F4A20CB31CC41CD51CA2142B
:10189000B304C404D50448F0A216B306C406D506A2
:1018A00020F4A20CB31CC41CD51CE896ECACFDAC17
:1018B0000EAD1FADE897E4960FACE49704C0EE0CB4
:1018C000FF1C001F111F0A94D2F72D96ECAEFDAE3F
:1018D0000EAF1FAF2D97A21AB30AC40AD50A320160
:1018E000882499249201810120703070A1960CAF58
:1018F0001DAF2EAF3FAFA197C601B501A401930163
:101900000E9458217B018C01C601B501A4019301FD
:101910000E945821CA01B901A1962CAD3DAD4EAD32
:101920005FADA1970E9439219B01AC018701FF2483
:10193000EE242D96ACACBDACCEACDFAC2D97C60181
:10194000AA27BB2757016801A82AB92ACA2ADB2A75
:10195000A216B306C406D50690F4A20CB31CC41C90
:10196000D51CA214B304C404D50448F0A216B306CF
:10197000C406D50620F4A20CB31CC41CD51CA21AA4
:10198000B30AC40AD50AC601B501A40193010E9495
:1019900058217B018C01C601B501A40193010E946D
:1019A0005821CA01B901A1962CAD3DAD4EAD5FAD38
:1019B000A1970E9439219B01AC018701FF24EE24ED
:1019C0002D968CAD9DADAEADBFAD2D97A070B07016
:1019D000E82AF92A0A2B1B2BE216F306040715073F
:1019E00090F4E20CF31C041D151DE214F30404052D
:1019F000150548F0E216F3060407150720F4E20C7B
:101A0000F31C041D151DE21AF30A040B150BD80173
:101A1000C70162960FAC629704C0B695A7959795DB
:101A200087950A94D2F789A79AA7ABA7BCA71DA64A
:101A30001EA61FA618AA898B8AA58A8B8BA58B8BBD
:101A40008CA58C8B8DA58D8B2FC36A147B048C0485
:101A50009D0448F4498B5A8B6B8B7C8B8D8B9E8BB2
:101A60002F8B388F27C300E0A01600E0B00601E0FE
:101A7000C00600E0D00688F41FEFA116B104C1042F
:101A8000D10439F030F028E0E22EF12C012D112D97
:101A900018C0EE24FF24870114C020E0A21620E025
:101AA000B20620E0C20621E0D20630F098E1E92E2D
:101AB000F12C012D112D05C080E1E82EF12C012D16
:101AC000112DD601C5010E2C04C0B695A79597958A
:101AD00087950A94D2F78D579F4FDC012C9180E2B5
:101AE00090E0A0E0B0E08E199F09A00BB10B821B23
:101AF0009109A109B1090097A105B10509F059C0E3
:101B0000A614B704C804D90470F0E896ECACFDAC98
:101B10000EAD1FADE897E214F3040405150518F4A3
:101B2000D801C7012FC0E8968CAD9DADAEADBFAD5D
:101B3000E89782199309A409B509A40193012A1908
:101B40003B094C095D09AA24BB246501E8966CACED
:101B50007DAC8EAC9FACE897681679068A069B062A
:101B600028F411E0A12EB12CC12CD12C79018A01CD
:101B7000EA18FB080C091D096196ECAEFDAE0EAF2C
:101B80001FAF619789A79AA7ABA7BCA761960CADB9
:101B90001DAD2EAD3FAD61970DA71EA72FA738AB8A
:101BA000898B8AA58A8B8BA58B8B8CA58C8B0D8BB7
:101BB0007BC2E3968FAFE397A6019501082E04C080
:101BC000220F331F441F551F0A94D2F710E2181B2F
:101BD000E2961FAFE297D201C101012E04C0B69573
:101BE000A795979587950A94D2F75C016D01A22A73
:101BF000B32AC42AD52A2596ACAEBDAECEAEDFAE92
:101C0000259772016101E3960FACE39704C0CC0CF9
:101C1000DD1CEE1CFF1C0A94D2F72196CCAEDDAE83
:101C2000EEAEFFAE219764015301012E04C0D6949D
:101C3000C794B794A7940A94D2F7A4019301E396AA
:101C40000FACE39704C0220F331F441F551F0A94A3
:101C5000D2F7E8968CAD9DADAEADBFADE89704C0B0
:101C6000B695A795979587951A95D2F77C018D0122
:101C7000E22AF32A042B152BE9AEFAAE0BAF1CAF08
:101C8000E8960CAD1DAD2EAD3FADE897E3960FACD9
:101C9000E39704C0000F111F221F331F0A94D2F7CD
:101CA0000DAB1EAB2FAB38AF25962CAD3DAD4EAD79
:101CB0005FAD25973A018824992440705070A5960D
:101CC0002CAF3DAF4EAF5FAFA597C601B501A401E4
:101CD00093010E9458217B018C01C601B501A4012A
:101CE00093010E945821C901DA011C012D01C20192
:101CF000B101A5962CAD3DAD4EAD5FADA5970E944F
:101D000039219B01AC018701FF24EE24A9ACBAACB8
:101D1000CBACDCACC601AA27BB2757016801A82AB7
:101D2000B92ACA2ADB2AA216B306C406D50610F5BC
:101D3000089421083108410851082596ECACFDAC07
:101D40000EAD1FAD2597AE0CBF1CC01ED11EAE142C
:101D5000BF04C006D10670F0A216B306C406D506AD
:101D600048F408942108310841085108AE0CBF1C02
:101D7000C01ED11EA21AB30AC40AD50AC601B501F3
:101D8000A40193010E9458217B018C01C601B50179
:101D9000A40193010E945821C901DA013C014D01BF
:101DA000C401B301A5962CAD3DAD4EAD5FADA59779
:101DB0000E9439219B01AC018701FF24EE2489ADEB
:101DC0009AADABADBCADA070B07057016801A82A48
:101DD000B92ACA2ADB2AA216B306C406D50610F50C
:101DE0000894610871088108910825966CAD7DAD55
:101DF0008EAD9FAD2597A60EB71EC81ED91EA6167E
:101E0000B706C806D90670F0A216B306C406D506F2
:101E100048F408946108710881089108A60EB71E5D
:101E2000C81ED91ED601C501821B930BA40BB50B8E
:101E300089AB9AABABABBCABD101992788278401A6
:101E40007301E82AF92A0A2B1B2B8FEFA82E8FEF9C
:101E5000B82EC12CD12CAE20BF20C022D1227801B7
:101E60000027112721966CAC7DAC8EAC9FAC2197DE
:101E70002FEF3FEF40E050E0622273228422952250
:101E800021966CAD7DAD8EAD9FAD2197AC016627DF
:101E90007727AD964CAF5DAF6EAF7FAFAD97C60104
:101EA000B501A40193010E943921A9966CAF7DAFC1
:101EB0008EAF9FAFA997C601B501AD962CAD3DADD4
:101EC0004EAD5FADAD970E9439211B012C01C801B9
:101ED000B701A40193010E9439215B016C01C80183
:101EE000B701AD962CAD3DAD4EAD5FADAD970E9447
:101EF00039217B018C01A6019501220D331D441D62
:101F0000551DA9966CAC7DAC8EAC9FACA997C40155
:101F1000AA27BB27280F391F4A1F5B1F2A153B051D
:101F20004C055D0548F4812C912CE1E0AE2EB12CDE
:101F3000E80CF91C0A1D1B1DCA01AA27BB27570163
:101F40006801A80EB91ECA1EDB1EA901332722276D
:101F5000A9968CAD9DADAEADBFADA997A070B07088
:101F6000280F391F4A1F5B1FE9A8FAA80BA91CA953
:101F7000EA14FB040C051D0570F0AE14BF04C00686
:101F8000D10689F56DA97EA98FA998AD621773074F
:101F90008407950740F5DA01C90121966CAC7DAC48
:101FA0008EAC9FAC219786199709A809B909259687
:101FB000ECACFDAC0EAD1FAD2597AE18BF08C00A46
:101FC000D10AEE24FF248701281739074A075B0747
:101FD00028F421E0E22EF12C012D112DAE18BF08BE
:101FE000C00AD10A02C0DA01C9016DA87EA88FA873
:101FF00098AC681A790A8A0A9B0A09A91AA92BA916
:102000003CA90A191B092C093D0958016901222420
:10201000332421012DA93EA94FA958AD2615370516
:102020004805590528F481E0282E312C412C512CEB
:1020300086017501E218F30804091509A801970142
:10204000E2960FACE29704C0220F331F441F551FC6
:102050000A94D2F7D401C301E3960FACE39704C00E
:10206000B695A795979587950A94D2F7282B392B83
:102070004A2B5B2B29A73AA74BA75CA7E3960FAC8B
:10208000E39704C016950795F794E7940A94D2F75E
:10209000EDA6FEA60FA718AB298B8AA58A8B8BA568
:1020A0008B8B8CA58C8BED8A8EA58E8B8FA58F8BC1
:1020B00088A9888FE1964CAD5DAD6EAD7FADE1979F
:1020C000411551056105710509F467C089892A899F
:1020D0003B894C895D89AE89BF89188DF82FF195B0
:1020E00091E01F1608F090E0822F819521E01816EC
:1020F00008F020E0E82FE91B91E08E1708F090E04F
:10210000292B832F819531E0181608F030E0782FC5
:10211000721B91E0871708F090E0392B842F81958E
:1021200021E0181608F020E0682F631B91E0861765
:1021300008F090E0292B852F819531E0181608F0E2
:1021400030E0582F521B91E0851708F090E0392BB2
:102150008A2F819521E0181608F020E0482F431BB4
:1021600091E0841708F090E0292B8B2F819591E066
:10217000181608F090E0382F321B21E0831708F082
:1021800020E0922B812F8195891BF98BEA8B7B8B29
:102190006C8B5D8B4E8B3F8B888F29893A894B895D
:1021A0005C896D897E898F89988DC958DF4FE2E1FE
:1021B0000C949621A0E0B0E0E0EEF0E10C947A21DE
:1021C000DC012B01FA019C91923008F439C1EB013A
:1021D0008881823008F433C1943069F4843009F086
:1021E0002FC111969C9111978981981709F428C1E4
:1021F000ABE7B0E025C1843009F421C18230A9F4F5
:10220000923009F01DC19A01AD0188E0EA01099000
:10221000AE01E90109929E018150C1F7E201898175
:1022200011969C918923818308C1923009F407C1DA
:1022300012962D903C901397EB018A819B81149606
:10224000AD90BD90CD90DC901797EC80FD800E8115
:102250001F819101281B390BB90137FF04C0662784
:102260007727621B730B603271050CF061C0121688
:1022700013066CF537014801062E04C09694879426
:10228000779467940A94D2F721E030E040E050E080
:1022900004C0220F331F441F551F6A95D2F72150E7
:1022A0003040404050402E213F21402351232115F2
:1022B00031054105510521F021E030E040E050E0DA
:1022C00079018A01E628F728082919293CC0232B1F
:1022D000D1F1260E371E35014601062E04C0969414
:1022E0008794779467940A94D2F721E030E040E035
:1022F00050E004C0220F331F441F551F6A95D2F7C8
:1023000021503040404050402A213B214C215D214A
:10231000211531054105510521F021E030E040E073
:1023200050E059016A01A628B728C828D9280BC04F
:10233000821593052CF01C01AA24BB24650103C05F
:10234000EE24FF24870111969C91D20111968C9165
:10235000981709F445C0992339F0A80197012A1963
:102360003B094C095D0906C0A60195012E193F09DC
:10237000400B510B57FD08C0118233822282248307
:102380003583468357831DC081E081833382228257
:1023900088279927DC01821B930BA40BB50B848340
:1023A0009583A683B7830DC0220F331F441F551F8B
:1023B0002483358346835783828193810197938356
:1023C00082832481358146815781DA01C9010197D1
:1023D000A109B1098F5F9F4FAF4FBF4328F30BC0D7
:1023E000918333822282EA0CFB1C0C1D1D1DE482AA
:1023F000F5820683178383E08083248135814681BB
:10240000578157FF1AC0C901AA2797FDA095BA2F77
:1024100081709070A070B07056954795379527954C
:10242000822B932BA42BB52B84839583A683B78310
:1024300082819381019693838283DF0101C0D2015F
:10244000CD01CDB7DEB7E2E10C949621A0E2B0E079
:10245000ECE2F2E10C94862169837A838B839C837E
:102460002D833E834F835887E9E0EE2EF12CEC0E4E
:10247000FD1ECE010196B7010E9437158E010F5E39
:102480001F4FCE010596B8010E9437158A8991E049
:1024900089278A8BC701B801AE01475E5F4F0E9452
:1024A000DA100E946214A096E6E00C94A221A0E249
:1024B000B0E0EDE5F2E10C94862169837A838B83A9
:1024C0009C832D833E834F835887F9E0EF2EF12CB8
:1024D000EC0EFD1ECE010196B7010E9437158E014C
:1024E0000F5E1F4FCE010596B8010E943715C70138
:1024F000B801AE01475E5F4F0E94DA100E9462147D
:10250000A096E6E00C94A221A0E2B0E0EAE8F2E1B5
:102510000C947A2169837A838B839C832D833E83F9
:102520004F835887CE010196BE01675F7F4F0E949F
:102530003715CE010596BE016F5E7F4F0E9437159D
:102540009985923088F089898230C8F0943019F4E6
:10255000823051F404C0843029F4923081F48BE746
:1025600090E0C6C0923049F420E09A858A89981399
:1025700021E02A87CE010996BBC0823049F420E0D1
:102580009A858A89981321E02A8BCE014196B0C0A2
:102590002D843E844F8458886D887E888F88988CDF
:1025A000EE24FF248701AA24BB24650140E050E00B
:1025B00060E070E0E0E0F0E0C10181709070892B94
:1025C000E9F0E60CF71C081D191D9A01AB012A0D54
:1025D0003B1D4C1D5D1D80E090E0A0E0B0E0E614E6
:1025E000F7040805190520F481E090E0A0E0B0E0D0
:1025F000BA01A901480F591F6A1F7B1FAA0CBB1CF7
:10260000CC1CDD1C97FE08C081E090E0A0E0B0E0AB
:10261000A82AB92ACA2ADB2A3196E032F10549F004
:10262000660C771C881C991C569447943794279401
:10263000C3CFFA85EA892B893C898B859C85280F35
:10264000391F2E5F3F4F17C0CA0181709070892BD0
:1026500061F016950795F794E79480E090E0A0E08C
:10266000B0E8E82AF92A0A2B1B2B7695679557952F
:1026700047952F5F3F4F77FDE7CF0CC0440F551FA5
:10268000661F771F17FD4160EE0CFF1C001F111F16
:1026900021503040403090E0590790E0690790E4C5
:1026A000790760F32B8F3C8FDB01CA018F77907025
:1026B000A070B07080349105A105B10561F447FDAB
:1026C0000AC0E114F1040105110529F0405C5F4FD7
:1026D0006F4F7F4F40781A8EFE1711F081E08A8F7E
:1026E0004D8F5E8F6F8F78A383E0898FCE014996DF
:1026F0000E946214A096E2E10C949621A8E1B0E059
:10270000E4E8F3E10C94862169837A838B839C83CC
:102710002D833E834F83588789E0E82EF12CEC0E01
:10272000FD1ECE010196B7010E9437158E010F5E86
:102730001F4FCE010596B8010E943715898582305A
:1027400040F08989823028F0C701B8010E94AF1596
:1027500001C08FEF6896E6E00C94A221A8E1B0E0FA
:10276000E4EBF3E10C94862169837A838B839C8369
:102770002D833E834F83588789E0E82EF12CEC0EA1
:10278000FD1ECE010196B7010E9437158E010F5E26
:102790001F4FCE010596B8010E94371589858230FA
:1027A00040F08989823028F0C701B8010E94AF1536
:1027B00001C08FEF6896E6E00C94A221A8E1B0E09A
:1027C000E4EEF3E10C94862169837A838B839C8306
:1027D0002D833E834F83588789E0E82EF12CEC0E41
:1027E000FD1ECE010196B7010E9437158E010F5EC6
:1027F0001F4FCE010596B8010E943715898582309A
:1028000040F08989823028F0C701B8010E94AF15D5
:1028100001C081E06896E6E00C94A221ACE0B0E053
:10282000E4E1F4E10C948A2169837A838B839C83AD
:10283000CE010196BE016B5F7F4F0E9437158D81DF
:10284000823061F1823050F1843021F48E8188230E
:1028500051F12EC02F81388537FD20C06E812F3178
:1028600031051CF06623F9F023C08EE190E0821B55
:10287000930B29853A854B855C8504C05695479511
:10288000379527958A95D2F76623B1F050954095F4
:10289000309521953F4F4F4F5F4F0EC020E030E005
:1028A00040E050E009C02FEF3FEF4FEF5FE704C07B
:1028B00020E030E040E050E8B901CA012C96E2E0A7
:1028C0000C94A621DF92EF92FF920F931F93FC01CD
:1028D000E480F58006811781D1808081823048F4C0
:1028E00080E090E0A0E1B0E0E82AF92A0A2B1B2B57
:1028F000A5C0843009F49FC0823021F4EE24FF2467
:10290000870105C0E114F1040105110519F4E0E0A7
:10291000F0E096C0628173819FEF623879070CF016
:102920005BC022E83FEF261B370B2A3131052CF024
:1029300020E030E040E050E02AC0B801A701022EBC
:1029400004C076956795579547950A94D2F781E02C
:1029500090E0A0E0B0E004C0880F991FAA1FBB1F41
:102960002A95D2F70197A109B1098E219F21A023B1
:10297000B1230097A105B10521F081E090E0A0E02E
:10298000B0E09A01AB01282B392B4A2B5B2BDA01E3
:10299000C9018F779070A070B07080349105A10547
:1029A000B10539F427FF09C0205C3F4F4F4F5F4FFF
:1029B00004C0215C3F4F4F4F5F4FE0E0F0E020301C
:1029C000A0E03A07A0E04A07A0E45A0710F0E1E0CF
:1029D000F0E079018A0127C06038710564F5FB01D8
:1029E000E158FF4FD801C7018F779070A070B07089
:1029F00080349105A105B10539F4E7FE0DC080E4EE
:102A000090E0A0E0B0E004C08FE390E0A0E0B0E090
:102A1000E80EF91E0A1F1B1F17FF05C01695079524
:102A2000F794E794319687E016950795F794E79425
:102A30008A95D1F705C0EE24FF248701EFEFF0E07F
:102A40006E2F679566276795902F9F77D794DD2423
:102A5000D7948E2F8695492F462B582F5D29B70185
:102A6000CA011F910F91FF90EF90DF900895FC0134
:102A7000DB01408151812281622F6F7770E0221F3C
:102A80002227221F9381892F880F822B282F30E045
:102A9000991F9927991F11969C931197211531051C
:102AA000A9F5411551056105710511F482E037C0A2
:102AB00082E89FEF13969C938E9312979A01AB0135
:102AC00067E0220F331F441F551F6A95D1F783E03B
:102AD0008C930DC0220F331F441F551F12968D91EA
:102AE0009C911397019713969C938E931297203085
:102AF00080E0380780E0480780E4580758F31496D0
:102B00002D933D934D935C93179708952F3F310577
:102B100079F4411551056105710519F484E08C9330
:102B2000089564FF03C081E08C9312C01C9210C012
:102B30002F57304013963C932E93129783E08C933B
:102B400087E0440F551F661F771F8A95D1F7706481
:102B500014964D935D936D937C93179708951F93EF
:102B6000DC01FB019C91923008F447C080818230E7
:102B700008F443C0943051F411961C91843099F5B7
:102B80008181682F70E0611B71093FC0843021F0A2
:102B9000923031F48230B9F18181882389F12DC0DE
:102BA00011961C9111978230F1F081811817D9F498
:102BB00012962D913C9113978281938182179307EE
:102BC00094F028173907BCF014968D919D910D90C3
:102BD000BC91A02D24813581468157812817390762
:102BE0004A075B0718F4112341F00AC082179307C4
:102BF000A407B50740F4112319F061E070E005C0A7
:102C00006FEF7FEF02C060E070E0CB011F9108958D
:102C1000DF93CF93CDB7DEB727970FB6F894DEBF1B
:102C20000FBECDBF89836A834B838B81882309F0D4
:102C300074C08981282F30E03F832E838E819F814D
:102C40008130910559F12E813F81223031052CF4DC
:102C50008E819F81009769F0D2C02E813F81223002
:102C6000310589F18E819F818330910509F440C03F
:102C7000C6C0AAE3B0E0EAE3F0E08081482F8A8191
:102C8000282F30E081E090E0022E02C0880F991FCB
:102C90000A94E2F7809584238C93B1C0A7E3B0E057
:102CA000E7E3F0E08081482F8A81282F30E081E03F
:102CB00090E0022E02C0880F991F0A94E2F78095D7
:102CC00084238C939CC0A4E3B0E0E4E3F0E0808133
:102CD000482F8A81282F30E081E090E0022E02C048
:102CE000880F991F0A94E2F7809584238C9387C0FC
:102CF000A1E3B0E0E1E3F0E08081482F8A81282F52
:102D000030E081E090E0022E02C0880F991F0A9403
:102D1000E2F7809584238C9372C08B81813009F017
:102D20006EC08981282F30E03D832C838C819D816A
:102D30008130910549F12C813D81223031052CF4FF
:102D40008C819D81009761F05AC02C813D81223099
:102D5000310571F18C819D8183309105E9F14FC07E
:102D6000AAE3B0E0EAE3F0E08081482F8A81282FCF
:102D700030E081E090E0022E02C0880F991F0A9493
:102D8000E2F7842B8C933BC0A7E3B0E0E7E3F0E0ED
:102D90008081482F8A81282F30E081E090E0022E48
:102DA00002C0880F991F0A94E2F7842B8C9327C0E6
:102DB000A4E3B0E0E4E3F0E08081482F8A81282F8B
:102DC00030E081E090E0022E02C0880F991F0A9443
:102DD000E2F7842B8C9313C0A1E3B0E0E1E3F0E0D1
:102DE0008081482F8A81282F30E081E090E0022EF8
:102DF00002C0880F991F0A94E2F7842B8C932796C0
:102E00000FB6F894DEBF0FBECDBFCF91DF9108950E
:102E1000DF93CF93CDB7DEB727970FB6F894DEBF19
:102E20000FBECDBF89836A834B838B81882309F0D2
:102E300074C08981282F30E03F832E838E819F814B
:102E40008130910559F12E813F81223031052CF4DA
:102E50008E819F81009769F0D2C02E813F81223000
:102E6000310589F18E819F818330910509F440C03D
:102E7000C6C0ABE3B0E0EBE3F0E08081482F8A818D
:102E8000282F30E081E090E0022E02C0880F991FC9
:102E90000A94E2F7809584238C93B1C0A8E3B0E054
:102EA000E8E3F0E08081482F8A81282F30E081E03C
:102EB00090E0022E02C0880F991F0A94E2F78095D5
:102EC00084238C939CC0A5E3B0E0E5E3F0E080812F
:102ED000482F8A81282F30E081E090E0022E02C046
:102EE000880F991F0A94E2F7809584238C9387C0FA
:102EF000A2E3B0E0E2E3F0E08081482F8A81282F4E
:102F000030E081E090E0022E02C0880F991F0A9401
:102F1000E2F7809584238C9372C08B81813009F015
:102F20006EC08981282F30E03D832C838C819D8168
:102F30008130910549F12C813D81223031052CF4FD
:102F40008C819D81009761F05AC02C813D81223097
:102F5000310571F18C819D8183309105E9F14FC07C
:102F6000ABE3B0E0EBE3F0E08081482F8A81282FCB
:102F700030E081E090E0022E02C0880F991F0A9491
:102F8000E2F7842B8C933BC0A8E3B0E0E8E3F0E0E9
:102F90008081482F8A81282F30E081E090E0022E46
:102FA00002C0880F991F0A94E2F7842B8C9327C0E4
:102FB000A5E3B0E0E5E3F0E08081482F8A81282F87
:102FC00030E081E090E0022E02C0880F991F0A9441
:102FD000E2F7842B8C9313C0A2E3B0E0E2E3F0E0CD
:102FE0008081482F8A81282F30E081E090E0022EF6
:102FF00002C0880F991F0A94E2F7842B8C932796BE
:103000000FB6F894DEBF0FBECDBFCF91DF9108950C
:10301000DF93CF9300D000D000D0CDB7DEB7898347
:103020006A835C834B838981282F30E03E832D8324
:103030004D815E814130510559F18D819E818230F3
:10304000910534F42D813E812115310569F05BC075
:103050004D815E814230510579F18D819E818330B1
:10306000910509F43DC04FC0E9E3F0E08081282FCD
:1030700030E08A81882F90E0A90102C055954795DC
:103080008A95E2F7CA018170EB81FC8180833BC0A5
:10309000E6E3F0E08081282F30E08A81882F90E0FD
:1030A000A90102C0559547958A95E2F7CA0181703A
:1030B000EB81FC81808327C0E3E3F0E08081282F4F
:1030C00030E08A81882F90E0A90102C0559547958C
:1030D0008A95E2F7CA018170EB81FC81808313C07D
:1030E000E0E3F0E08081282F30E08A81882F90E0B3
:1030F000A90102C0559547958A95E2F7CA018170EA
:10310000EB81FC81808326960FB6F894DEBF0FBE5C
:10311000CDBFCF91DF910895DF93CF9300D000D042
:1031200000D0CDB7DEB789836A838A81813099F573
:103130008981282F30E03E832D838D819E818130CF
:103140009105D1F02D813E81223031052CF48D8105
:103150009E81009761F050C02D813E812230310563
:1031600081F08D819E818330910581F045C0EAE335
:10317000F0E08FEF808340C0E7E3F0E08FEF8083E3
:103180003BC0E4E3F0E08FEF808336C0E1E3F0E0A2
:103190008FEF808331C08A81882371F58981282F40
:1031A00030E03C832B838B819C8181309105C9F079
:1031B0002B813C81223031052CF48B819C8100973E
:1031C00061F01AC02B813C812230310571F08B8176
:1031D0009C818330910569F00FC0EAE3F0E0108232
:1031E0000BC0E7E3F0E0108207C0E4E3F0E01082F8
:1031F00003C0E1E3F0E0108226960FB6F894DEBF3C
:103200000FBECDBFCF91DF910895DF93CF9300D054
:1032100000D0CDB7DEB789836A838981282F30E05B
:103220003C832B838B819C8181309105D1F02B8154
:103230003C81223031052CF48B819C81009761F018
:103240001EC02B813C812230310581F08B819C8115
:103250008330910581F013C0EBE3F0E08A81808335
:103260000EC0E8E3F0E08A81808309C0E5E3F0E086
:103270008A81808304C0E2E3F0E08A8180830F903A
:103280000F900F900F90CF91DF910895DF93CF9320
:1032900000D000D00F92CDB7DEB789837B836A83DD
:1032A0008981282F30E03D832C838C819D81813062
:1032B0009105E1F02C813D81223031052CF48C8187
:1032C0009D81009761F026C02C813D81223031051F
:1032D000A1F08C819D8183309105B1F01BC0EBE39F
:1032E000F0E08081EA81FB81808314C0E8E3F0E0B4
:1032F0008081EA81FB8180830DC0E5E3F0E080817D
:10330000EA81FB81808306C0E2E3F0E08081EA810C
:10331000FB8180830F900F900F900F900F90CF91B3
:10332000DF910895DF93CF9300D00F92CDB7DEB732
:1033300089836A834B830F900F900F90CF91DF9119
:103340000895DF93CF93CDB7DEB72F970FB6F894DC
:10335000DEBF0FBECDBF8F8783E060E041E00E94FB
:10336000081783E061E040E00E94081782E06F8563
:103370000E94051983E062E041E00E94081780E0A6
:1033800090E0A0E4B0E48B879C87AD87BE876B8517
:103390007C858D859E8520E030E04AEF54E40E94D4
:1033A0008412DC01CB018F839887A987BA876F814C
:1033B000788589859A8520E030E040E85FE30E94C7
:1033C000DE1388232CF481E090E09E838D833FC040
:1033D0006F81788589859A8520E03FEF4FE757E434
:1033E0000E947E1318164CF56B857C858D859E8515
:1033F00020E030E040E251E40E948412DC01CB0185
:10340000BC01CD010E944900DC01CB019E838D836C
:103410000FC088EC90E09C838B838B819C8101970B
:10342000F1F79C838B838D819E8101979E838D8391
:103430008D819E81009769F714C06F817885898599
:103440009A850E944900DC01CB019E838D838D818A
:103450009E819A83898389819A810197F1F79A8362
:10346000898383E062E040E00E9408172F960FB640
:10347000F894DEBF0FBECDBFCF91DF910895DF93EB
:10348000CF93CDB7DEB72F970FB6F894DEBF0FBE40
:10349000CDBF8F8783E060E040E00E94081783E0A3
:1034A00061E040E00E94081782E06F850E940519E4
:1034B00083E062E041E00E94081780E090E0A0E431
:1034C000B0E48B879C87AD87BE876B857C858D85B7
:1034D0009E8520E030E04AEF54E40E948412DC0133
:1034E000CB018F839887A987BA876F817885898573
:1034F0009A8520E030E040E85FE30E94DE138823F5
:103500002CF481E090E09E838D833FC06F817885AD
:1035100089859A8520E03FEF4FE757E40E947E13AC
:1035200018164CF56B857C858D859E8520E030E0F6
:1035300040E251E40E948412DC01CB01BC01CD01C8
:103540000E944900DC01CB019E838D830FC088EC73
:1035500090E09C838B838B819C810197F1F79C8306
:103560008B838D819E8101979E838D838D819E812A
:10357000009769F714C06F81788589859A850E94C4
:103580004900DC01CB019E838D838D819E819A83CE
:10359000898389819A810197F1F79A83898383E0EE
:1035A00062E040E00E9408172F960FB6F894DEBF45
:1035B0000FBECDBFCF91DF910895DF93CF93CDB7ED
:1035C000DEB76C970FB6F894DEBF0FBECDBF80E0BC
:1035D00090E0A0E2B2E4898F9A8FAB8FBC8F698DA7
:1035E0007A8D8B8D9C8D20E030E04AEF54E40E9470
:1035F0008412DC01CB018D8B9E8BAF8BB88F6D89D4
:103600007E898F89988D20E030E040E85FE30E945A
:10361000DE1388232CF481E090E09C8B8B8B3FC0E1
:103620006D897E898F89988D20E03FEF4FE757E4C1
:103630000E947E1318164CF5698D7A8D8B8D9C8DAA
:1036400020E030E040E251E40E948412DC01CB0132
:10365000BC01CD010E944900DC01CB019C8B8B8B0E
:103660000FC088EC90E09A8B898B89899A890197A1
:10367000F1F79A8B898B8B899C8901979C8B8B8B1B
:103680008B899C89009769F714C06D897E898F8921
:10369000988D0E944900DC01CB019C8B8B8B8B8920
:1036A0009C89988B8F878F8598890197F1F7988BE4
:1036B0008F878CE30E943F1A80E090E0A0E8BFE390
:1036C0008B879C87AD87BE876B857C858D859E8526
:1036D00020E030E04AEF54E40E948412DC01CB0188
:1036E0008F839887A987BA876F81788589859A851E
:1036F00020E030E040E85FE30E94DE1388232CF4F2
:1037000081E090E09E838D833FC06F8178858985BD
:103710009A8520E03FEF4FE757E40E947E1318168A
:103720004CF56B857C858D859E8520E030E040E200
:1037300051E40E948412DC01CB01BC01CD010E9446
:103740004900DC01CB019E838D830FC088EC90E0A3
:103750009C838B838B819C810197F1F79C838B8366
:103760008D819E8101979E838D838D819E8100979F
:1037700069F714C06F81788589859A850E94490010
:10378000DC01CB019E838D838D819E819A83898309
:1037900089819A810197F1F79A8389838CE00E944D
:1037A0003F1A81E00E943F1A6C960FB6F894DEBF74
:1037B0000FBECDBFCF91DF910895DF93CF93CDB7EB
:1037C000DEB781E00E943F1ACF91DF910895DF9329
:1037D000CF9300D0CDB7DEB789836A8389818130EA
:1037E00019F48A81805C8A838A8180580E943F1AFA
:1037F0000F900F90CF91DF910895DF93CF93CDB7C6
:10380000DEB727970FB6F894DEBF0FBECDBF9C83FF
:103810008B836D834E832F838D81882F90E0880F5B
:10382000991F880F991F880F991F8A838A81805C4E
:103830000E943F1A19820EC08981282F30E08B81A7
:103840009C81FC01E20FF31F80810E94A1198981F4
:103850008F5F89838981883078F38E816F810E94A0
:10386000E71B8D810E94A11927960FB6F894DEBF41
:103870000FBECDBFCF91DF910895DF93CF9300D0DE
:10388000CDB7DEB79A83898389819A810097A1F0A9
:1038900089819A812AE030E0B9010E941221CB018E
:1038A0000E943D1C89819A812AE030E0B9010E9482
:1038B0001221805D0E94A1190F900F90CF91DF918E
:1038C00008952F923F924F925F926F927F928F92C4
:1038D0009F92AF92BF92CF92DF92EF92FF920F939F
:1038E0001F93DF93CF93CDB7DEB7E4970FB6F8946D
:1038F000DEBF0FBECDBF29833A834B835C836D83CC
:103900007E838F83988788858823D4F08885882351
:1039100009F0FCC08F81882309F0F8C08E818823CC
:1039200009F0F4C08D81882309F0F0C08C818823D0
:1039300009F0ECC08B81882309F0E8C08A81E6C0D9
:103940008DE20E94A1191A861B861C861D861E8682
:103950001F86188A198A99819A8B8A818B8B9B8101
:103960009C8B8C818D8B9D819E8B8E818F8B9F817B
:10397000988F8885898F9A858A89981B9A8F91E07C
:103980009AA38A8D9A85981708F01AA28B859B892D
:10399000891B8B8F81E08BA39B8D8B85891708F00A
:1039A0001BA29B8D8AA1981B9CA391E09DA38CA137
:1039B0009B8D981708F01DA28BA19DA1892B8BA32D
:1039C0008CA18B8F9C858C89981B9C8F91E09EA3EA
:1039D0008C8D9C85981708F01EA28C8D9BA1891B4D
:1039E0008FA381E088A79FA18C8D891708F018A666
:1039F0009EA188A5982B9EA39FA19C8F8D859D89B4
:103A0000891B8D8F81E089A79D8D8D85891708F091
:103A100019A69D8D8EA1981B9AA791E09BA78AA5B8
:103A20009D8D981708F01BA689A59BA5892B89A7B2
:103A30008AA58D8F9E858E89981B9E8F91E09CA76D
:103A40008E8D9E85981708F01CA68E8D99A5891BD2
:103A50008DA781E08EA79DA58E8D891708F01EA6E3
:103A60009CA58EA5982B9CA79DA59E8F8F859F8931
:103A7000891B8F8F81E08FA79F8D8F85891708F015
:103A80001FA69F8D8CA5981B98AB91E099AB88A938
:103A90009F8D981708F019AA8FA599A9892B8FA730
:103AA00088A98F8F9889888D981B98A391E09AABED
:103AB00088A19889981708F01AAA88A19FA5891B40
:103AC0008BAB81E08CAB9BA988A1891708F01CAA5D
:103AD0009AA98CA9982B9AAB9BA998A38989998DAF
:103AE000891B89A389A19AA9891B89A38A8D8983A6
:103AF0009B8D9A838C8D8B839D8D9C838E8D8D83E6
:103B00009F8D9E8388A18F8399A1988789819A81AF
:103B1000892B9B81892B9C81892B9D81892B9E815F
:103B2000892B9F81892B9885892B882309F46EC066
:103B300081E080939C01A980BA80CB80DC80ED80FD
:103B4000FE800F8118852A2D3B2D4C2D5D2D6E2D6D
:103B50007F2D802F912F0F2EFAE0AF2EF02DBB245A
:103B6000CC24DD24EE24FF2400E010E00E94750048
:103B7000222E332E442E552E662E772E882E992EE9
:103B8000A22CB32CC42CD52CE62CF72C082D192DE7
:103B90002A2D3B2D4C2D5D2D6E2D7F2D802F912FAD
:103BA0000E94611CA980BA80CB80DC80ED80FE8001
:103BB0000F8118852A2D3B2D4C2D5D2D6E2D7F2DCF
:103BC000802F912F0F2EFAE0AF2EF02DBB24CC24A6
:103BD000DD24EE24FF2400E010E00E949D08A22EC8
:103BE000B32EC42ED52EE62EF72E082F192F2A2DF0
:103BF0003B2D4C2D5D2D6E2D7F2D802F912F822FF3
:103C0000805D0E94A11910929C0118C089819A813F
:103C1000892B9B81892B9C81892B9D81892B9E815E
:103C2000892B9F81892B9885892B882339F4809152
:103C30009C01882319F480E30E94A119E4960FB631
:103C4000F894DEBF0FBECDBFCF91DF911F910F91D2
:103C5000FF90EF90DF90CF90BF90AF909F908F90AC
:103C60007F906F905F904F903F902F900895DF93DB
:103C7000CF9300D0CDB7DEB79A8389830AC0E9819C
:103C8000FA8180810E94A11989819A8101969A8383
:103C90008983E981FA818081882389F70F900F90C9
:103CA000CF91DF910895DF93CF93CDB7DEB7A7E330
:103CB000B0E0E7E3F0E080818F608C93A7E3B0E0B1
:103CC000E7E3F0E08081807F8C93A8E3B0E0E8E355
:103CD000F0E08081806F8C93CF91DF910895DF9326
:103CE000CF93CDB7DEB7A8970FB6F894DEBF0FBE5F
:103CF000CDBFCE0142969DA38CA3EBE8F1E0FFA3DC
:103D0000EEA3F0E1F8A7EEA1FFA100808EA19FA194
:103D100001969FA38EA3ECA1FDA100828CA19DA181
:103D200001969DA38CA398A5915098A7E8A5EE2392
:103D300051F7188AD3C08889882F90E0FC01ED578D
:103D4000FE4F908181E0692F40E00E9408171F8696
:103D5000B2C08F85882F90E0FC01E957FE4F90811B
:103D60009E012E5D3F4F80E0692FA9010E94081837
:103D70008AA1882309F09CC080E090E0A8E4B3E425
:103D80008B879C87AD87BE876B857C858D859E855F
:103D900020E030E04AEF54E40E948412DC01CB01C1
:103DA0008F839887A987BA876F81788589859A8557
:103DB00020E030E040E85FE30E94DE1388232CF42B
:103DC00081E090E09E838D833FC06F8178858985F7
:103DD0009A8520E03FEF4FE757E40E947E131816C4
:103DE0004CF56B857C858D859E8520E030E040E23A
:103DF00051E40E948412DC01CB01BC01CD010E9480
:103E00004900DC01CB019E838D830FC088EC90E0DC
:103E10009C838B838B819C810197F1F79C838B839F
:103E20008D819E8101979E838D838D819E810097D8
:103E300069F714C06F81788589859A850E94490049
:103E4000DC01CB019E838D838D819E819A83898342
:103E500089819A810197F1F79A8389838F85282F29
:103E600030E08889482F50E0220F331F220F331F84
:103E7000CE010196820F931F840F951FFC0171964E
:103E80008081898B0FC08F85882F90E0FC01E957D6
:103E9000FE4F90819E012E5D3F4F80E0692FA9016A
:103EA0000E9408188AA1882371F3F989FBA31CC01A
:103EB0008F858F5F8F878F85843008F44ACF8889FC
:103EC000882F90E0FC01ED57FE4F908181E0692F33
:103ED00041E00E94081788898F5F888B8889843029
:103EE00008F429CF85E68BA38BA1A8960FB6F8948A
:103EF000DEBF0FBECDBFCF91DF910895AF92BF92CD
:103F0000CF92DF92EF92FF920F931F93DF93CF93A5
:103F1000CDB7DEB767970FB6F894DEBF0FBECDBF43
:103F200082E061E00E948C1883E061E00E948C18BE
:103F30000E94DD1A81E061E00E948C1880E060E060
:103F40000E948C1880E06FE00E9405191F8A1E8A6B
:103F50001D8A1C8A1B8A1A8A198A188A80E063E0E3
:103F60000E94E71B80E690E00E94371E81E060E03F
:103F70000E94E71B8AE690E00E94371E80E090E8EE
:103F8000ABE3B5E48B879C87AD87BE876B857C856B
:103F90008D859E8520E030E04AEF54E40E94841233
:103FA000DC01CB018F839887A987BA876F817885D9
:103FB00089859A8520E030E040E85FE30E94DE13C7
:103FC00088232CF481E090E09E838D833FC06F8135
:103FD000788589859A8520E03FEF4FE757E40E9476
:103FE0007E1318164CF56B857C858D859E8520E0AB
:103FF00030E040E251E40E948412DC01CB01BC01BC
:10400000CD010E944900DC01CB019E838D830FC04E
:1040100088EC90E09C838B838B819C810197F1F7E6
:104020009C838B838D819E8101979E838D838D815F
:104030009E81009769F714C06F81788589859A857C
:104040000E944900DC01CB019E838D838D819E817E
:104050009A83898389819A810197F1F79A83898369
:104060000E94DD1B0E946F1E8F878F85833429F489
:104070000E94DD1B85E68F87F5CF8F85853691F110
:104080008F858D3379F18F858B3261F18F858D32FC
:1040900049F18F858A3231F18F858F3219F1888904
:1040A000882301F58E899F899C01220F331FC90146
:1040B000880F991F880F991F820F931F9F8B8E8BDC
:1040C0008F85882F90E09C01205330408E899F89F6
:1040D000820F931F9F8B8E8B8F850E94A11985E67F
:1040E0008F87C0CF8F858536B1F08F858B3249F0B1
:1040F0008F858D3231F08F858A3219F08F858F321E
:1041000051F48F858B8B81E0888B8F850E94A1195C
:1041100085E68F87A7CF8F85853631F18F858D33E3
:1041200019F18889813001F58C899D899C01220FC4
:10413000331FC901880F991F880F991F820F931F82
:104140009D8B8C8B8F85882F90E09C012053304075
:104150008C899D89820F931F9D8B8C8B8F850E94EC
:10416000A11985E68F877ECF8F858D3309F07ACFB1
:104170008F850E94A1198B898B3249F48E899F8982
:104180002C893D89820F931F9A8B898B2BC08B8939
:104190008D3249F48E899F892C893D89821B930B2E
:1041A0009A8B898B1FC08B898A3279F48E899F897B
:1041B0002C893D89AC01429FC001439F900D529FC5
:1041C000900D11249A8B898B0DC08B898F3251F4FD
:1041D0008E899F892C893D89B9010E942621CB01B6
:1041E0009A8B898B89899A89990F880B982FA9882E
:1041F000BA88C82ED82EE82EF82E082F182F2A2D70
:104200003B2D4C2D5D2D6E2D7F2D802F912F0E94EB
:10421000611C1F8A1E8A1D8A1C8A1B8A1A8A198A97
:10422000188A20CFAA1BBB1B51E107C0AA1FBB1FC6
:10423000A617B70710F0A61BB70B881F991F5A9532
:10424000A9F780959095BC01CD01089597FB092EA3
:1042500007260AD077FD04D0E5DF06D000201AF447
:10426000709561957F4F0895F6F7909581959F4FD2
:104270000895629FD001739FF001829FE00DF11DB0
:10428000649FE00DF11D929FF00D839FF00D749FD0
:10429000F00D659FF00D9927729FB00DE11DF91F7C
:1042A000639FB00DE11DF91FBD01CF0111240895D9
:1042B000A1E21A2EAA1BBB1BFD010DC0AA1FBB1F2A
:1042C000EE1FFF1FA217B307E407F50720F0A21B9C
:1042D000B30BE40BF50B661F771F881F991F1A9409
:1042E00069F760957095809590959B01AC01BD0133
:1042F000CF0108952F923F924F925F926F927F92DB
:104300008F929F92AF92BF92CF92DF92EF92FF92E5
:104310000F931F93CF93DF93CDB7DEB7CA1BDB0B91
:104320000FB6F894DEBF0FBECDBF09942A88398836
:1043300048885F846E847D848C849B84AA84B9843D
:10434000C884DF80EE80FD800C811B81AA81B98149
:10435000CE0FD11D0FB6F894DEBF0FBECDBFED015D
:064360000895F894FFCF60
:1043660057656C636F6D652021004D50313A536976
:104376006D706C652043616C632C000000000000CA
:104386000000000001020203030303040404040402
:1043960004040405050505050505050505050505CA
:1043A60005050506060606060606060606060606AA
:1043B6000606060606060606060606060606060697
:1043C600060606070707070707070707070707077A
:1043D6000707070707070707070707070707070767
:1043E6000707070707070707070707070707070757
:1043F6000707070707070707070707070707070747
:104406000707070808080808080808080808080829
:104416000808080808080808080808080808080816
:104426000808080808080808080808080808080806
:1044360008080808080808080808080808080808F6
:1044460008080808080808080808080808080808E6
:1044560008080808080808080808080808080808D6
:1044660008080808080808080808080808080808C6
:1044760008080808080808080808080808080808B6
:1044860008080800010203000102033738392F34F7
:0C44960035362A3132332D43303D2B00E7
:00000001FF
